:03000000020008F3
:0300610002000397
:050003001200F480FE74
:0E006400907F93E4F0907F9C74FFF0907F9467
:0E007200E4F0907F9D74FFF0907F95E4F09095
:060080007F9E74FFF022D8
:0800860085820885830985F0DD
:07008E000AF50B7E007F0064
:0C0095008E00EFF93395E0FAFBC3E8950C
:0600A10008E99509EA954B
:0A00A7000AEB6480850BF063F08023
:0B00B10095F050070EBE00DC0F80D958
:0100BC002221
:0800BD0085820885830985F0A6
:0700C5000AF50B7E007F002D
:0C00CC008E00EFF93395E0FAFBC3E895D5
:0600D80008E99509EA9514
:0A00DE000AEB6480850BF063F080EC
:0B00E80095F050070EBE00DC0F80D921
:0100F30022EA
:0300F40012006493
:0E00F700907F96E4F0902710E4F5F01200865A
:0D010500907F9674FFF0902710E4F5F01243
:04011200008680E102
:06003700E478FFF6D8FD9D
:080015007900E94400601B7A48
:05001D000090011A78BB
:030022000075A0C6
:0A00250000E493F2A308B8000205FE
:08002F00A0D9F4DAF275A0FF7C
:04003D0075A0007832
:0700410000E84400600779AC
:0600480000E4F309D8FCFE
:08004E007800E84400600C7921
:0B00560000900000E4F0A3D8FCD9FAF1
:0300080075810BF4
:0A000B00120116E5826003020003F3
:0401160075820022CC
:00000001FF
