:100000000C943E000C945B000C945B000C945B0021
:100010000C945B000C945B000C945B000C945B00F4
:100020000C945B000C945B000C945B000C945B00E4
:100030000C945B000C945B000C945B000C945B00D4
:100040000C945B000C945B000C945B000C945B00C4
:100050000C945B000C945B000C945B000C945B00B4
:100060000C945B000C945B000C945B000C945B00A4
:100070000C945B000C945B000C945B0011241FBE7D
:10008000CFEFD4E0DEBFCDBF11E0A0E0B1E0E8EFFC
:10009000F0E002C005900D92A030B107D9F711E051
:1000A000A0E0B1E001C01D92A030B107E1F70E94CD
:1000B0005D000C947A000C9400008FEF81B984B934
:1000C00087B98AB91092C50083E38093C40088E1A0
:1000D0008093C10086E08093C2008091C00087FFBA
:1000E000FCCF9091C6008091C00085FFFCCF90931B
:0800F000C600F3CFF894FFCF26
:00000001FF
